{
  "abi": [
    {
      "inputs": [
        {
          "internalType": "address",
          "name": "_vault",
          "type": "address"
        }
      ],
      "stateMutability": "nonpayable",
      "type": "constructor"
    },
    {
      "inputs": [
        {
          "internalType": "address",
          "name": "userAddress",
          "type": "address"
        }
      ],
      "name": "getPositions",
      "outputs": [
        {
          "internalType": "address[]",
          "name": "",
          "type": "address[]"
        }
      ],
      "stateMutability": "view",
      "type": "function"
    }
  ],
  "bytecode": {
    "object": "0x608060405234801561001057600080fd5b5060405161071338038061071383398101604081905261002f91610054565b600080546001600160a01b0319166001600160a01b0392909216919091179055610084565b60006020828403121561006657600080fd5b81516001600160a01b038116811461007d57600080fd5b9392505050565b610680806100936000396000f3fe608060405234801561001057600080fd5b506004361061002b5760003560e01c80633eeb530e14610030575b600080fd5b61004361003e3660046104f2565b610059565b6040516100509190610516565b60405180910390f35b60008054604080517f044d9e9000000000000000000000000000000000000000000000000000000000815290516060939273ffffffffffffffffffffffffffffffffffffffff169163044d9e909160048083019260209291908290030181865afa1580156100cb573d6000803e3d6000fd5b505050506040513d601f19601f820116820180604052508101906100ef9190610570565b67ffffffffffffffff81111561010757610107610589565b604051908082528060200260200182016040528015610130578160200160208202803683370190505b5090506000805b60008054906101000a900473ffffffffffffffffffffffffffffffffffffffff1673ffffffffffffffffffffffffffffffffffffffff1663044d9e906040518163ffffffff1660e01b8152600401602060405180830381865afa1580156101a2573d6000803e3d6000fd5b505050506040513d601f19601f820116820180604052508101906101c69190610570565b8160ff1610156103fe57600080546040517f83e6dfa900000000000000000000000000000000000000000000000000000000815260ff8416600482015273ffffffffffffffffffffffffffffffffffffffff909116906383e6dfa990602401602060405180830381865afa158015610242573d6000803e3d6000fd5b505050506040513d601f19601f8201168201806040525081019061026691906105b8565b6040517f70a0823100000000000000000000000000000000000000000000000000000000815273ffffffffffffffffffffffffffffffffffffffff88811660048301529192506000918316906370a0823190602401602060405180830381865afa1580156102d8573d6000803e3d6000fd5b505050506040513d601f19601f820116820180604052508101906102fc9190610570565b905080156103e9576000546040517f83e6dfa900000000000000000000000000000000000000000000000000000000815260ff8516600482015273ffffffffffffffffffffffffffffffffffffffff909116906383e6dfa990602401602060405180830381865afa158015610375573d6000803e3d6000fd5b505050506040513d601f19601f8201168201806040525081019061039991906105b8565b858560ff16815181106103ae576103ae6105d5565b602002602001019073ffffffffffffffffffffffffffffffffffffffff16908173ffffffffffffffffffffffffffffffffffffffff16815250505b505080806103f690610604565b915050610137565b5060008160ff1667ffffffffffffffff81111561041d5761041d610589565b604051908082528060200260200182016040528015610446578160200160208202803683370190505b50905060005b8260ff168160ff1610156104c357838160ff168151811061046f5761046f6105d5565b6020026020010151828260ff168151811061048c5761048c6105d5565b73ffffffffffffffffffffffffffffffffffffffff90921660209283029190910190910152806104bb81610604565b91505061044c565b5091949350505050565b73ffffffffffffffffffffffffffffffffffffffff811681146104ef57600080fd5b50565b60006020828403121561050457600080fd5b813561050f816104cd565b9392505050565b6020808252825182820181905260009190848201906040850190845b8181101561056457835173ffffffffffffffffffffffffffffffffffffffff1683529284019291840191600101610532565b50909695505050505050565b60006020828403121561058257600080fd5b5051919050565b7f4e487b7100000000000000000000000000000000000000000000000000000000600052604160045260246000fd5b6000602082840312156105ca57600080fd5b815161050f816104cd565b7f4e487b7100000000000000000000000000000000000000000000000000000000600052603260045260246000fd5b600060ff821660ff8103610641577f4e487b7100000000000000000000000000000000000000000000000000000000600052601160045260246000fd5b6001019291505056fea26469706673582212208818a4d1455c559238e470036a4a603badebcdbad77a4ad254e4daac3e9d4a1c64736f6c63430008150033",
    "linkReferences": {}
  },
  "methodIdentifiers": {
    "getPositions(address)": "3eeb530e"
  },
  "id": 55
}